{
  "contractName": "VanillinFacilitator",
  "abi": [
    {
      "constant": false,
      "inputs": [
        {
          "name": "to",
          "type": "address"
        },
        {
          "name": "ipfsRef",
          "type": "string"
        }
      ],
      "name": "finalize",
      "outputs": [],
      "payable": false,
      "stateMutability": "nonpayable",
      "type": "function"
    },
    {
      "constant": false,
      "inputs": [
        {
          "name": "to",
          "type": "address"
        },
        {
          "name": "gB",
          "type": "string"
        },
        {
          "name": "ipfsRef",
          "type": "string"
        }
      ],
      "name": "reply",
      "outputs": [],
      "payable": false,
      "stateMutability": "nonpayable",
      "type": "function"
    },
    {
      "constant": false,
      "inputs": [
        {
          "name": "to",
          "type": "address"
        },
        {
          "name": "gA",
          "type": "string"
        }
      ],
      "name": "init",
      "outputs": [],
      "payable": false,
      "stateMutability": "nonpayable",
      "type": "function"
    },
    {
      "anonymous": false,
      "inputs": [
        {
          "indexed": false,
          "name": "from",
          "type": "address"
        },
        {
          "indexed": true,
          "name": "to",
          "type": "address"
        },
        {
          "indexed": false,
          "name": "ipfsRef",
          "type": "string"
        },
        {
          "indexed": false,
          "name": "timestampt",
          "type": "uint256"
        }
      ],
      "name": "IPFSOnly",
      "type": "event"
    },
    {
      "anonymous": false,
      "inputs": [
        {
          "indexed": false,
          "name": "from",
          "type": "address"
        },
        {
          "indexed": true,
          "name": "to",
          "type": "address"
        },
        {
          "indexed": false,
          "name": "gB",
          "type": "string"
        },
        {
          "indexed": false,
          "name": "ipfsRef",
          "type": "string"
        },
        {
          "indexed": false,
          "name": "timestampt",
          "type": "uint256"
        }
      ],
      "name": "DiffieIPFS",
      "type": "event"
    },
    {
      "anonymous": false,
      "inputs": [
        {
          "indexed": false,
          "name": "from",
          "type": "address"
        },
        {
          "indexed": true,
          "name": "to",
          "type": "address"
        },
        {
          "indexed": false,
          "name": "gA",
          "type": "string"
        },
        {
          "indexed": false,
          "name": "timestampt",
          "type": "uint256"
        }
      ],
      "name": "DiffieOnly",
      "type": "event"
    }
  ],
  "bytecode": "0x6060604052341561000f57600080fd5b6105868061001e6000396000f300606060405260043610610057576000357c0100000000000000000000000000000000000000000000000000000000900463ffffffff16806350a983da1461005c578063c464edfb146100d8578063f321b30514610197575b600080fd5b341561006757600080fd5b6100d6600480803573ffffffffffffffffffffffffffffffffffffffff1690602001909190803590602001908201803590602001908080601f01602080910402602001604051908101604052809392919081815260200183838082843782019150505050505091905050610213565b005b34156100e357600080fd5b610195600480803573ffffffffffffffffffffffffffffffffffffffff1690602001909190803590602001908201803590602001908080601f0160208091040260200160405190810160405280939291908181526020018383808284378201915050505050509190803590602001908201803590602001908080601f01602080910402602001604051908101604052809392919081815260200183838082843782019150505050505091905050610306565b005b34156101a257600080fd5b610211600480803573ffffffffffffffffffffffffffffffffffffffff1690602001909190803590602001908201803590602001908080601f01602080910402602001604051908101604052809392919081815260200183838082843782019150505050505091905050610467565b005b8173ffffffffffffffffffffffffffffffffffffffff167fea7e6de490fa0bf2c072670edd232ec1ff96a7d35911acd3fd265332326a71c8338342604051808473ffffffffffffffffffffffffffffffffffffffff1673ffffffffffffffffffffffffffffffffffffffff16815260200180602001838152602001828103825284818151815260200191508051906020019080838360005b838110156102c65780820151818401526020810190506102ab565b50505050905090810190601f1680156102f35780820380516001836020036101000a031916815260200191505b5094505050505060405180910390a25050565b8273ffffffffffffffffffffffffffffffffffffffff167f18d8da0c41b54978623579640bb49cc04cf655a35130b55dc2c96f793949990333848442604051808573ffffffffffffffffffffffffffffffffffffffff1673ffffffffffffffffffffffffffffffffffffffff1681526020018060200180602001848152602001838103835286818151815260200191508051906020019080838360005b838110156103be5780820151818401526020810190506103a3565b50505050905090810190601f1680156103eb5780820380516001836020036101000a031916815260200191505b50838103825285818151815260200191508051906020019080838360005b83811015610424578082015181840152602081019050610409565b50505050905090810190601f1680156104515780820380516001836020036101000a031916815260200191505b50965050505050505060405180910390a2505050565b8173ffffffffffffffffffffffffffffffffffffffff167fed9fa9af0b733eabf69879da94d46154ee7a6bf4a59e9b8471340ebc25a35338338342604051808473ffffffffffffffffffffffffffffffffffffffff1673ffffffffffffffffffffffffffffffffffffffff16815260200180602001838152602001828103825284818151815260200191508051906020019080838360005b8381101561051a5780820151818401526020810190506104ff565b50505050905090810190601f1680156105475780820380516001836020036101000a031916815260200191505b5094505050505060405180910390a250505600a165627a7a7230582090f9848f77923cc78510782877403c42e4e47e6ca6c9c5cb3ba64696e160dca20029",
  "source": "pragma solidity ^0.4.12;\n\n\n/*\n    VanillinFacilitator Contract\n\n    It emits necessary events from and to participants\n*/\ncontract VanillinFacilitator {\n\n    event IPFSOnly(address from, address indexed to, string ipfsRef, uint timestampt);\n    event DiffieIPFS(address from, address indexed to, string gB, string ipfsRef, uint timestampt);\n    event DiffieOnly(address from, address indexed to, string gA, uint timestampt);\n\n    // sends the diffie helman key (G^A) to user B.\n    function init(address to, string gA) public {\n        DiffieOnly(msg.sender, to, gA, now);\n    }\n\n    //this is the second part of diffie helman\n    function reply(address to, string gB, string ipfsRef) public {\n        DiffieIPFS(msg.sender, to, gB, ipfsRef, now);\n    }\n\n    // this function sends the IPFS refence from user A to B\n    // both user's can then query IPFS and decrypt the data outside the contract\n    function finalize(address to, string ipfsRef) public {\n        IPFSOnly(msg.sender, to, ipfsRef, now);\n    }\n}\n",
  "sourcePath": "/media/jojo/IvyMike/pro/vanillin/packages/vanillin-contract/contracts/VanillinFacilitator.sol",
  "compiler": {
    "name": "solc",
    "version": "0.4.18+commit.9cf6e910.Emscripten.clang"
  },
  "schemaVersion": "1.0.1",
  "updatedAt": "2018-01-01T01:55:54.325Z"
}